:020000000B28CB
:10000800CE00030E83128E000A088F0037280C28B2
:1000180083128C018D01830111280B178316860129
:100028000130850083128C018D0186018312051C25
:100038001E281F281A280518222823281F280130BF
:100048008C0703188D0A00308D071F3089000C08B3
:1000580088008316081555308900AA30890088144D
:100068008B171A280B288316081E3B283C2844287F
:100078001F3083128900831608148312080886002B
:100088008316081283120F088A000E0E8300CE0E04
:040098004E0E0900FF
:08400000FF3FFF3FFF3FFF3FC0
:02400E00F93F78
:00000001FF
