:020000000B28CB
:10000800CE00030E83128E000A088F0011280C28D8
:1000180083128C018D01830130280B1D14281528AB
:10002800292801308C0703188D0A00308D070A3003
:100038000C060D04031D2128222826288C018D0179
:10004800013086063D3081000B110F088A000E0E24
:100058008300CE0E4E0E09008B178B1607308316C1
:10006800810086013D30831281008C018D0186015B
:040078003C280B28ED
:08400000FF3FFF3FFF3FFF3FC0
:02400E00F93F78
:00000001FF
