:060000000A128A110C280F
:10000800FE00030EF0000A08F1000A128A111328F4
:100018000A128A110F2883010A128A1143288312AF
:100028000313061B182819281C28053088001E28C9
:100038000A308800861E212822282D28F63015022D
:10004800031C272828282A28013095001508143E63
:100058009500061E302831283B281508031D352831
:1000680036283828F53095001508EC3E95000B1019
:1000780071088A00700E8300FE0E7E0E09008B1731
:100088008B158312031397151715F930831603136D
:1000980092007D30831203139500921012141215EA
:1000A800FF30831603138600880187010530831209
:0C00B800031388005E280A128A110C282D
:08400000FF3FFF3FFF3FFF3FC0
:02400E00F93F78
:00000001FF
