:060000000A128A11EC2F28
:100E94007E088A007F0882000A128A114A270A12F1
:100EA4008A118000840A04087D0603190034FF0AAD
:100EB4000319FE0A4E2F3F340034063400345B34E9
:100EC40000344F340034663400346D3400347C34E0
:100ED4000034073400347F3400346F340034003479
:100EE400003407308316031386008801831203132A
:100EF40088010830831203138600061D822F832F76
:100F0400872F0130F0000030F100861C8A2F8B2FD0
:100F14008F2F0230F0000030F100061C922F932F27
:100F2400972F0330F0000030F10010308600061DCA
:100F34009C2F9D2FA12F0430F0000030F100861C5F
:100F4400A42FA52FA92F0530F0000030F100061CB6
:100F5400AC2FAD2FB12F0630F0000030F10020305F
:100F64008600061DB62FB72FBB2F0730F0000030C8
:100F7400F100861CBE2FBF2FC32F0830F0000030B5
:100F8400F100061CC62FC72FCB2F0930F00000300C
:100F9400F10040308600861CD02FD12FD32FF001D2
:100FA400F1017008F2007207203E840083130008E8
:100FB40088001A30F300F830F200F20BDF2FF30B45
:100FC400DF2F00000A30F0000030F1007B2F0A12FE
:100FD4008A11002883133630FD000730FE005D308F
:100FE400FF00203084000A128A114E270A128A1147
:0C0FF400F001F10183010A128A11732F31
:08400000FF3FFF3FFF3FFF3FC0
:02400E00F93F78
:00000001FF
