:020000000B28CB
:10000800CE00030E83128F000A0890000E280C28D9
:10001800830143280B1811281328013014280030B5
:100028008C000030061A0138861A0138061B013880
:10003800861B01380038031D222824280130252872
:1000480000300C05003803192A282B2839280514F4
:100058000B308E0026308D005D308C008C0B3228E2
:100068008D0B32288E0B322839280B10831205107D
:1000780010088A000F0E8300CE0E4E0E09008B1753
:100088008B15F03083168600850183128501831253
:1000980086100630930013309200AD309100910B1A
:1000A8005328920B5328930B53285A2883128614EB
:1000B8000630930013309200AD309100910B622806
:0E00C800920B6228930B622869284B280B28A4
:08400000FF3FFF3FFF3FFF3FC0
:02400E00FB3F76
:00000001FF
