:060000000A128A11EA2F2A
:100E72007E088A007F0882000A128A1139270A1224
:100E82008A118000840A04087D0603190034FF0ACF
:100E92000319FE0A3D2F00340034B6340034B63450
:100EA2000034B6340034BE340034033400347534B4
:100EB2000034763400347534003403340034F200E4
:100EC200F101721C652F662F6A2F7008FF007F08E0
:100ED200F1070310F00D0310F20C7208031D722FBC
:100EE200732F622F7108080083160313860187018E
:100EF200FA01FB01F601F7010130831203138700A7
:100F0200F801F9017808F30001300310F30DFF3EF8
:100F1200031D862F20307307F4000A30F0007A0890
:100F22000A128A1160270A128A117407F5007508DD
:100F32008400831300088312031386000730F40031
:100F42007D30F300F30BA32FF40BA32F83120313B3
:100F52000708F300730787000130F8070318F90A3E
:100F62000030F9077908803AFF0080307F02031DC4
:100F7200BC2F05307802031CBF2FC02F832F0130F6
:100F8200F6070318F70A0030F7077708803AFF00E0
:100F920080307F02031DCF2F64307602031CD22FD4
:100FA200D32F7D2F0130FA070318FB0A0030FB070D
:100FB2007B08803AFF0080307F02031DE22F02305F
:100FC2007A02031CE52FE62F7B2F792F0A128A1152
:100FD200002883133430FD000730FE004C30FF0040
:100FE200203084000A128A113D270A128A11F60162
:0E0FF200F701F801F90183010A128A11752F27
:08400000FF3FFF3FFF3FFF3FC0
:02400E00FB3D78
:00000001FF
