:020000000B28CB
:10000800CE00030E83128F000A08900054280C2893
:1000180083010E288B170B16013083168600850185
:1000280083128501831286100630930013309200E4
:10003800AD309100910B1E28920B1E28930B1E28A1
:100048002528831286140630930013309200AD30B1
:100058009100910B2D28920B2D28930B2D283428D5
:10006800831206110630930013309200AD309100D0
:10007800910B3C28920B3C28930B3C284328831275
:1000880006150630930013309200AD309100910BA5
:100098004B28920B4B28930B4B28522816280B28D9
:1000A8008B1C572858286728013085000B308E0094
:1000B80026308D005D308C008C0B60288D0B6028FD
:1000C8008E0B602867288B108312850110088A0020
:0A00D8000F0E8300CE0E4E0E09003D
:08400000FF3FFF3FFF3FFF3FC0
:02400E00FB3F76
:00000001FF
