:020000000D28C9
:10000800CE00030E83128C000A088D004F088E0064
:100018001F290E28831291019201830113288B173F
:100028008B1530308316860083129101920183125A
:100038000614F628C7308F0021288F0B2028242883
:1000480025288312061019309000AB308F008F0BD3
:100058002B28900B2B2830281B28DB308F003428C6
:100068008F0B332837283828831206101930900050
:100078008A308F008F0B3E28900B3E2800001B28EB
:10008800EF308F0047288F0B46284A284B288312C9
:1000980006101930900069308F008F0B5128900B93
:1000A80051281B28B9308F0059285A288F0B5828F7
:1000B8005D285E28831206101930900047308F00A3
:1000C8008F0B6428900B642869281B28C7308F0081
:1000D8006D286E288F0B6C2871287228732883125C
:1000E80006101930900026308F008F0B7928900B5E
:1000F800792800001B28D6308F00822883288F0B90
:1001080081280000831206101930900005308F00F6
:100118008F0B8C28900B8C281B28E4308F00942898
:1001280095288F0B93289828000083120610183002
:100138009000E4308F008F0B9F28900B9F280000C1
:100148001B28F2308F00A828A9288F0BA728AC28D5
:10015800AD2800008312061018309000C3308F00BD
:100168008F0BB428900BB4281B280330900055300F
:100178008F008F0BBD28900BBD28831206101830F6
:100188009000A1308F008F0BC728900BC728CC2870
:100198001B280330900076308F008F0BD128900BEE
:1001A800D1280000831206101830900080308F008C
:1001B8008F0BDC28900BDC2800001B2803309000F4
:1001C80097308F008F0BE628900BE628EB288312D8
:1001D8000610183090005F308F008F0BF128900BBD
:1001E800F1281B281208003A0319FB281B281108BC
:1001F800003A03191E28013A03193128033A031952
:100208004428013A03195628073A03196A28013A7B
:1002180003197F28033A03199128013A0319A528DD
:100228000F3A0319B928013A0319CD28033A0319DB
:10023800E2281B280D28061E2229232937291208FF
:10024800803ACF0080304F02031D2C290A3011025A
:1002580003182F29302937290130831291070318F1
:10026800920A003092078312861E3B293C295029A6
:100278001208803ACF0080304F02031D4529013013
:100288001102031C482949295029FF30831291077C
:100298000318920AFF3092070B1083120E080D08FC
:0C02A8008A000C0E8300CE0E4E0E0900E2
:08400000FF3FFF3FFF3FFF3FC0
:02400E00F93F78
:00000001FF
