:060000000A128A110E280D
:10000800FE00030EF5000A08F6007F08F7000A1242
:100018008A1125280A128A1111280A128A11A42085
:100028000A128A11F8000A128A11A5200A128A11E6
:10003800F900F001F101F201F30183010A128A11BA
:1000480095280B1D2828292887280130F007031830
:10005800F10A0030F1077108803AFF0093307F02FF
:10006800031D382889307002031C3B283C2855287A
:10007800F001F1017908803AFF0080307F02031D0A
:10008800472809307802031C4A284B284F28023099
:10009800F8000030F9000130F8070318F90A0030B9
:1000A800F9070130F2070318F30A0030F30779085B
:1000B800803AF4007308803A7402031D65287208B8
:1000C8007802031C682869286D2883120313061414
:1000D8007E287908803AF4007308803A7402031D78
:1000E80077287208780203187A287B287E288312DA
:1000F80003130610643072067304031D84288528D0
:100108008728F201F301E7308312031381000B11F2
:100118007708FF0076088A00750E8300FE0E7E0EB3
:1001280009008B178B168316031386010230810092
:10013800E730831203138100A0280A128A110E28BF
:040148000334003448
:08400000FF3FFF3FFF3FFF3FC0
:02400E00F93D7A
:00000001FF
